{
  "contractName": "SuiviMed",
  "abi": [
    {
      "inputs": [
        {
          "internalType": "address",
          "name": "_addressPromoter",
          "type": "address"
        },
        {
          "internalType": "address",
          "name": "_addressAuthority",
          "type": "address"
        }
      ],
      "stateMutability": "nonpayable",
      "type": "constructor"
    },
    {
      "anonymous": false,
      "inputs": [
        {
          "indexed": true,
          "internalType": "bytes32",
          "name": "role",
          "type": "bytes32"
        },
        {
          "indexed": true,
          "internalType": "bytes32",
          "name": "previousAdminRole",
          "type": "bytes32"
        },
        {
          "indexed": true,
          "internalType": "bytes32",
          "name": "newAdminRole",
          "type": "bytes32"
        }
      ],
      "name": "RoleAdminChanged",
      "type": "event"
    },
    {
      "anonymous": false,
      "inputs": [
        {
          "indexed": true,
          "internalType": "bytes32",
          "name": "role",
          "type": "bytes32"
        },
        {
          "indexed": true,
          "internalType": "address",
          "name": "account",
          "type": "address"
        },
        {
          "indexed": true,
          "internalType": "address",
          "name": "sender",
          "type": "address"
        }
      ],
      "name": "RoleGranted",
      "type": "event"
    },
    {
      "anonymous": false,
      "inputs": [
        {
          "indexed": true,
          "internalType": "bytes32",
          "name": "role",
          "type": "bytes32"
        },
        {
          "indexed": true,
          "internalType": "address",
          "name": "account",
          "type": "address"
        },
        {
          "indexed": true,
          "internalType": "address",
          "name": "sender",
          "type": "address"
        }
      ],
      "name": "RoleRevoked",
      "type": "event"
    },
    {
      "anonymous": false,
      "inputs": [
        {
          "indexed": false,
          "internalType": "uint256",
          "name": "_protocolID",
          "type": "uint256"
        },
        {
          "indexed": false,
          "internalType": "address",
          "name": "_personAgreeing",
          "type": "address"
        }
      ],
      "name": "agreedOnResumeEvent",
      "type": "event"
    },
    {
      "anonymous": false,
      "inputs": [
        {
          "indexed": false,
          "internalType": "uint256",
          "name": "_patientID",
          "type": "uint256"
        },
        {
          "indexed": false,
          "internalType": "uint256",
          "name": "_projectID",
          "type": "uint256"
        }
      ],
      "name": "alert",
      "type": "event"
    },
    {
      "anonymous": false,
      "inputs": [
        {
          "indexed": false,
          "internalType": "address",
          "name": "_addressAuthority",
          "type": "address"
        }
      ],
      "name": "authorityAdded",
      "type": "event"
    },
    {
      "anonymous": false,
      "inputs": [
        {
          "indexed": false,
          "internalType": "uint256",
          "name": "_patientID",
          "type": "uint256"
        }
      ],
      "name": "consentRevoked",
      "type": "event"
    },
    {
      "anonymous": false,
      "inputs": [
        {
          "indexed": false,
          "internalType": "uint256",
          "name": "_patientID",
          "type": "uint256"
        }
      ],
      "name": "dataCollected",
      "type": "event"
    },
    {
      "anonymous": false,
      "inputs": [
        {
          "indexed": false,
          "internalType": "address",
          "name": "_investigatorAddress",
          "type": "address"
        }
      ],
      "name": "investigatorAdded",
      "type": "event"
    },
    {
      "anonymous": false,
      "inputs": [
        {
          "indexed": false,
          "internalType": "uint256",
          "name": "_patientID",
          "type": "uint256"
        }
      ],
      "name": "newConsent",
      "type": "event"
    },
    {
      "anonymous": false,
      "inputs": [
        {
          "indexed": false,
          "internalType": "uint256",
          "name": "_patientID",
          "type": "uint256"
        },
        {
          "indexed": false,
          "internalType": "uint256",
          "name": "_projectID",
          "type": "uint256"
        }
      ],
      "name": "patientAdded",
      "type": "event"
    },
    {
      "anonymous": false,
      "inputs": [
        {
          "indexed": false,
          "internalType": "uint256",
          "name": "_projectID",
          "type": "uint256"
        },
        {
          "indexed": false,
          "internalType": "uint256",
          "name": "_protocolID",
          "type": "uint256"
        }
      ],
      "name": "projectCreation",
      "type": "event"
    },
    {
      "anonymous": false,
      "inputs": [
        {
          "indexed": false,
          "internalType": "address",
          "name": "_addressPromoter",
          "type": "address"
        }
      ],
      "name": "promoterAdded",
      "type": "event"
    },
    {
      "anonymous": false,
      "inputs": [
        {
          "indexed": false,
          "internalType": "address",
          "name": "_promoterAddress",
          "type": "address"
        },
        {
          "indexed": false,
          "internalType": "uint256",
          "name": "_protocolID",
          "type": "uint256"
        }
      ],
      "name": "protocolCreation",
      "type": "event"
    },
    {
      "anonymous": false,
      "inputs": [
        {
          "indexed": false,
          "internalType": "uint256",
          "name": "_protocolID",
          "type": "uint256"
        }
      ],
      "name": "protocolUpdated",
      "type": "event"
    },
    {
      "anonymous": false,
      "inputs": [
        {
          "indexed": false,
          "internalType": "uint256",
          "name": "_protocolID",
          "type": "uint256"
        },
        {
          "indexed": false,
          "internalType": "address",
          "name": "_authorityAddress",
          "type": "address"
        }
      ],
      "name": "protocolValidation",
      "type": "event"
    },
    {
      "anonymous": false,
      "inputs": [
        {
          "indexed": false,
          "internalType": "uint256",
          "name": "_protocolID",
          "type": "uint256"
        }
      ],
      "name": "resumedAfterAlert",
      "type": "event"
    },
    {
      "inputs": [],
      "name": "AUTHORITY",
      "outputs": [
        {
          "internalType": "bytes32",
          "name": "",
          "type": "bytes32"
        }
      ],
      "stateMutability": "view",
      "type": "function",
      "constant": true
    },
    {
      "inputs": [],
      "name": "AUTHORITYADMIN",
      "outputs": [
        {
          "internalType": "bytes32",
          "name": "",
          "type": "bytes32"
        }
      ],
      "stateMutability": "view",
      "type": "function",
      "constant": true
    },
    {
      "inputs": [],
      "name": "DEFAULT_ADMIN_ROLE",
      "outputs": [
        {
          "internalType": "bytes32",
          "name": "",
          "type": "bytes32"
        }
      ],
      "stateMutability": "view",
      "type": "function",
      "constant": true
    },
    {
      "inputs": [],
      "name": "INVESTIGATOR",
      "outputs": [
        {
          "internalType": "bytes32",
          "name": "",
          "type": "bytes32"
        }
      ],
      "stateMutability": "view",
      "type": "function",
      "constant": true
    },
    {
      "inputs": [],
      "name": "PROMOTER",
      "outputs": [
        {
          "internalType": "bytes32",
          "name": "",
          "type": "bytes32"
        }
      ],
      "stateMutability": "view",
      "type": "function",
      "constant": true
    },
    {
      "inputs": [],
      "name": "PROMOTERADMIN",
      "outputs": [
        {
          "internalType": "bytes32",
          "name": "",
          "type": "bytes32"
        }
      ],
      "stateMutability": "view",
      "type": "function",
      "constant": true
    },
    {
      "inputs": [
        {
          "internalType": "bytes32",
          "name": "role",
          "type": "bytes32"
        }
      ],
      "name": "getRoleAdmin",
      "outputs": [
        {
          "internalType": "bytes32",
          "name": "",
          "type": "bytes32"
        }
      ],
      "stateMutability": "view",
      "type": "function",
      "constant": true
    },
    {
      "inputs": [
        {
          "internalType": "bytes32",
          "name": "role",
          "type": "bytes32"
        },
        {
          "internalType": "address",
          "name": "account",
          "type": "address"
        }
      ],
      "name": "grantRole",
      "outputs": [],
      "stateMutability": "nonpayable",
      "type": "function"
    },
    {
      "inputs": [
        {
          "internalType": "bytes32",
          "name": "role",
          "type": "bytes32"
        },
        {
          "internalType": "address",
          "name": "account",
          "type": "address"
        }
      ],
      "name": "hasRole",
      "outputs": [
        {
          "internalType": "bool",
          "name": "",
          "type": "bool"
        }
      ],
      "stateMutability": "view",
      "type": "function",
      "constant": true
    },
    {
      "inputs": [
        {
          "internalType": "uint256",
          "name": "",
          "type": "uint256"
        }
      ],
      "name": "patients",
      "outputs": [
        {
          "internalType": "address",
          "name": "patientAddress",
          "type": "address"
        },
        {
          "internalType": "address",
          "name": "investigatorAddress",
          "type": "address"
        },
        {
          "internalType": "uint256",
          "name": "projectID",
          "type": "uint256"
        },
        {
          "internalType": "string",
          "name": "nameCID",
          "type": "string"
        },
        {
          "internalType": "bool",
          "name": "consent",
          "type": "bool"
        }
      ],
      "stateMutability": "view",
      "type": "function",
      "constant": true
    },
    {
      "inputs": [
        {
          "internalType": "uint256",
          "name": "",
          "type": "uint256"
        }
      ],
      "name": "projects",
      "outputs": [
        {
          "internalType": "uint256",
          "name": "protocolID",
          "type": "uint256"
        },
        {
          "internalType": "address",
          "name": "promoterAddress",
          "type": "address"
        },
        {
          "internalType": "enum SuiviMed.Status",
          "name": "status",
          "type": "uint8"
        }
      ],
      "stateMutability": "view",
      "type": "function",
      "constant": true
    },
    {
      "inputs": [
        {
          "internalType": "uint256",
          "name": "",
          "type": "uint256"
        }
      ],
      "name": "protocols",
      "outputs": [
        {
          "internalType": "bool",
          "name": "validated",
          "type": "bool"
        },
        {
          "internalType": "bool",
          "name": "alertOn",
          "type": "bool"
        },
        {
          "internalType": "uint256",
          "name": "date",
          "type": "uint256"
        },
        {
          "internalType": "address",
          "name": "promoterAddress",
          "type": "address"
        },
        {
          "internalType": "string",
          "name": "descriptionCID",
          "type": "string"
        },
        {
          "internalType": "string",
          "name": "treatmentsListCID",
          "type": "string"
        }
      ],
      "stateMutability": "view",
      "type": "function",
      "constant": true
    },
    {
      "inputs": [
        {
          "internalType": "bytes32",
          "name": "role",
          "type": "bytes32"
        },
        {
          "internalType": "address",
          "name": "account",
          "type": "address"
        }
      ],
      "name": "renounceRole",
      "outputs": [],
      "stateMutability": "nonpayable",
      "type": "function"
    },
    {
      "inputs": [
        {
          "internalType": "bytes32",
          "name": "role",
          "type": "bytes32"
        },
        {
          "internalType": "address",
          "name": "account",
          "type": "address"
        }
      ],
      "name": "revokeRole",
      "outputs": [],
      "stateMutability": "nonpayable",
      "type": "function"
    },
    {
      "inputs": [
        {
          "internalType": "bytes4",
          "name": "interfaceId",
          "type": "bytes4"
        }
      ],
      "name": "supportsInterface",
      "outputs": [
        {
          "internalType": "bool",
          "name": "",
          "type": "bool"
        }
      ],
      "stateMutability": "view",
      "type": "function",
      "constant": true
    },
    {
      "inputs": [
        {
          "internalType": "address",
          "name": "_addressPromoter",
          "type": "address"
        }
      ],
      "name": "addPromoter",
      "outputs": [],
      "stateMutability": "nonpayable",
      "type": "function"
    },
    {
      "inputs": [
        {
          "internalType": "address",
          "name": "_addressAuthority",
          "type": "address"
        }
      ],
      "name": "addAuthority",
      "outputs": [],
      "stateMutability": "nonpayable",
      "type": "function"
    },
    {
      "inputs": [
        {
          "internalType": "address",
          "name": "_addressInvestigator",
          "type": "address"
        },
        {
          "internalType": "uint256",
          "name": "_projectID",
          "type": "uint256"
        }
      ],
      "name": "addInvestigator",
      "outputs": [],
      "stateMutability": "nonpayable",
      "type": "function"
    },
    {
      "inputs": [
        {
          "internalType": "string",
          "name": "_descriptionCID",
          "type": "string"
        },
        {
          "internalType": "string",
          "name": "_treatmentsListCID",
          "type": "string"
        }
      ],
      "name": "createProtocol",
      "outputs": [],
      "stateMutability": "nonpayable",
      "type": "function"
    },
    {
      "inputs": [
        {
          "internalType": "uint256",
          "name": "_protocolID",
          "type": "uint256"
        },
        {
          "internalType": "address",
          "name": "_investigatorAddress",
          "type": "address"
        }
      ],
      "name": "createProject",
      "outputs": [],
      "stateMutability": "nonpayable",
      "type": "function"
    },
    {
      "inputs": [
        {
          "internalType": "uint256",
          "name": "_protocolID",
          "type": "uint256"
        }
      ],
      "name": "validateProtocol",
      "outputs": [],
      "stateMutability": "nonpayable",
      "type": "function"
    },
    {
      "inputs": [
        {
          "internalType": "uint256",
          "name": "_protocolID",
          "type": "uint256"
        },
        {
          "internalType": "string",
          "name": "_newDescriptionCID",
          "type": "string"
        },
        {
          "internalType": "string",
          "name": "_newTreatmentsListCID",
          "type": "string"
        }
      ],
      "name": "updateProtocol",
      "outputs": [],
      "stateMutability": "nonpayable",
      "type": "function"
    },
    {
      "inputs": [
        {
          "internalType": "address",
          "name": "_patientAddress",
          "type": "address"
        },
        {
          "internalType": "uint256",
          "name": "_projectID",
          "type": "uint256"
        },
        {
          "internalType": "string",
          "name": "_dataCID",
          "type": "string"
        },
        {
          "internalType": "string",
          "name": "_nameCID",
          "type": "string"
        }
      ],
      "name": "addPatient",
      "outputs": [],
      "stateMutability": "nonpayable",
      "type": "function"
    },
    {
      "inputs": [
        {
          "internalType": "uint256",
          "name": "_patientID",
          "type": "uint256"
        }
      ],
      "name": "consent",
      "outputs": [],
      "stateMutability": "nonpayable",
      "type": "function"
    },
    {
      "inputs": [
        {
          "internalType": "uint256",
          "name": "_patientID",
          "type": "uint256"
        }
      ],
      "name": "revokeConsent",
      "outputs": [],
      "stateMutability": "nonpayable",
      "type": "function"
    },
    {
      "inputs": [
        {
          "internalType": "uint256",
          "name": "_patientID",
          "type": "uint256"
        },
        {
          "internalType": "string",
          "name": "_newDataCID",
          "type": "string"
        }
      ],
      "name": "collectData",
      "outputs": [],
      "stateMutability": "nonpayable",
      "type": "function"
    },
    {
      "inputs": [
        {
          "internalType": "uint256",
          "name": "_patientID",
          "type": "uint256"
        },
        {
          "internalType": "uint256",
          "name": "_protocolID",
          "type": "uint256"
        }
      ],
      "name": "setAlertOn",
      "outputs": [],
      "stateMutability": "nonpayable",
      "type": "function"
    },
    {
      "inputs": [
        {
          "internalType": "uint256",
          "name": "_protocolID",
          "type": "uint256"
        }
      ],
      "name": "agreeOnResume",
      "outputs": [],
      "stateMutability": "nonpayable",
      "type": "function"
    },
    {
      "inputs": [
        {
          "internalType": "uint256",
          "name": "_protocolID",
          "type": "uint256"
        }
      ],
      "name": "resumeAfterAlert",
      "outputs": [],
      "stateMutability": "nonpayable",
      "type": "function"
    },
    {
      "inputs": [
        {
          "internalType": "uint256",
          "name": "_patientID",
          "type": "uint256"
        }
      ],
      "name": "getPatientDataCIDs",
      "outputs": [
        {
          "internalType": "string[]",
          "name": "",
          "type": "string[]"
        }
      ],
      "stateMutability": "view",
      "type": "function",
      "constant": true
    },
    {
      "inputs": [
        {
          "internalType": "address",
          "name": "_address",
          "type": "address"
        }
      ],
      "name": "getRole",
      "outputs": [
        {
          "internalType": "string",
          "name": "",
          "type": "string"
        }
      ],
      "stateMutability": "view",
      "type": "function",
      "constant": true
    },
    {
      "inputs": [
        {
          "internalType": "uint256",
          "name": "_protocolID",
          "type": "uint256"
        }
      ],
      "name": "getProtocolCIDs",
      "outputs": [
        {
          "internalType": "string[2]",
          "name": "",
          "type": "string[2]"
        }
      ],
      "stateMutability": "view",
      "type": "function",
      "constant": true
    },
    {
      "inputs": [],
      "name": "getProtocols",
      "outputs": [
        {
          "components": [
            {
              "internalType": "bool",
              "name": "validated",
              "type": "bool"
            },
            {
              "internalType": "bool",
              "name": "alertOn",
              "type": "bool"
            },
            {
              "internalType": "uint256",
              "name": "date",
              "type": "uint256"
            },
            {
              "internalType": "address",
              "name": "promoterAddress",
              "type": "address"
            },
            {
              "internalType": "string",
              "name": "descriptionCID",
              "type": "string"
            },
            {
              "internalType": "string",
              "name": "treatmentsListCID",
              "type": "string"
            }
          ],
          "internalType": "struct SuiviMed.Protocol[]",
          "name": "",
          "type": "tuple[]"
        }
      ],
      "stateMutability": "view",
      "type": "function",
      "constant": true
    },
    {
      "inputs": [],
      "name": "getProjects",
      "outputs": [
        {
          "components": [
            {
              "internalType": "uint256",
              "name": "protocolID",
              "type": "uint256"
            },
            {
              "internalType": "address",
              "name": "promoterAddress",
              "type": "address"
            },
            {
              "internalType": "address[]",
              "name": "investigatorsAddresses",
              "type": "address[]"
            },
            {
              "internalType": "enum SuiviMed.Status",
              "name": "status",
              "type": "uint8"
            }
          ],
          "internalType": "struct SuiviMed.Project[]",
          "name": "",
          "type": "tuple[]"
        }
      ],
      "stateMutability": "view",
      "type": "function",
      "constant": true
    },
    {
      "inputs": [
        {
          "internalType": "uint256",
          "name": "_projectID",
          "type": "uint256"
        }
      ],
      "name": "getPatientsInProject",
      "outputs": [
        {
          "internalType": "uint256[]",
          "name": "",
          "type": "uint256[]"
        }
      ],
      "stateMutability": "view",
      "type": "function",
      "constant": true
    }
  ],
  "bytecode": "0x60806040523480156200001157600080fd5b5060405162003f8d38038062003f8d8339810160408190526200003491620002dd565b6200005860008051602062003f0d8339815191528364010000000062000176810204565b6200007c60008051602062003f6d8339815191528364010000000062000176810204565b620000af60008051602062003f0d83398151915260008051602062003f6d8339815191526401000000006200018f810204565b620000f37f97f21e7273917267af1fea4c3510695aa29abe57349ce57ceec11b346883180360008051602062003f0d8339815191526401000000006200018f810204565b6200011760008051602062003f2d8339815191528264010000000062000176810204565b6200013b60008051602062003f4d8339815191528264010000000062000176810204565b6200016e60008051602062003f2d83398151915260008051602062003f4d8339815191526401000000006200018f810204565b505062000314565b6200018b8282640100000000620001e4810204565b5050565b80620001a48364010000000062000280810204565b60405184907fbd79b86ffe0ab8e8776151514217cd7cacd52c909f66475c3af44e129f0b00ff90600090a460009182526020829052604090912060010155565b620001f9828264010000000062000298810204565b6200018b57600082815260208181526040808320600160a060020a03851684529091529020805460ff191660011790556200023c640100000000620002c1810204565b600160a060020a031681600160a060020a0316837f2f8788117e7eff1d82e926ec794901d17c78024a50270940304540a733656f0d60405160405180910390a45050565b6000818152602081905260409020600101545b919050565b600091825260208281526040808420600160a060020a0393909316845291905290205460ff1690565b3390565b8051600160a060020a03811681146200029357600080fd5b60008060408385031215620002f0578182fd5b620002fb83620002c5565b91506200030b60208401620002c5565b90509250929050565b613be980620003246000396000f3fe608060405234801561001057600080fd5b506004361061022e576000357c01000000000000000000000000000000000000000000000000000000009004806393119a8311610142578063cf957199116100ca578063dcc6012811610099578063dcc60128146104cc578063ec9f4bda146104e1578063f3cb9271146104e9578063f434bb68146104fc578063fdbf8670146105115761022e565b8063cf95719914610473578063d4ec735d14610486578063d547741f14610499578063d9547943146104ac5761022e565b8063b43e027411610111578063b43e02741461041f578063b543e5a914610432578063bee3c78414610445578063c72ff16714610458578063cf2a9a931461046b5761022e565b806393119a83146103cd5780639eef6ce8146103f1578063a217fddf14610404578063a3255bea1461040c5761022e565b806336568abe116101c55780635a9184d6116101945780635a9184d61461035a5780637a25e3531461036d57806389fcd7961461038d5780638c3962201461039557806391d14854146103ba5761022e565b806336568abe146103015780634427673314610314578063458fb11a1461033457806354a0c458146103475761022e565b80631fa4f8e0116102015780631fa4f8e0146102b3578063248a9ca3146102c857806326defa73146102db5780632f2ff15d146102ee5761022e565b806301ffc9a714610233578063042e7b5c1461025c578063107046bd1461027c57806316a0042c1461029e575b600080fd5b610246610241366004612eba565b610519565b6040516102539190613369565b60405180910390f35b61026f61026a366004612e77565b610574565b6040516102539190613325565b61028f61028a366004612e77565b6106ea565b60405161025393929190613a78565b6102b16102ac366004612e77565b61072c565b005b6102bb61081c565b60405161025391906133cb565b6102bb6102d6366004612e77565b610840565b6102b16102e9366004612db2565b610855565b6102b16102fc366004612e8f565b61091d565b6102b161030f366004612e8f565b61095e565b610327610322366004612db2565b6109a3565b60405161025391906133d4565b6102b1610342366004612ef7565b610ae4565b6102b1610355366004612db2565b610cbd565b6102b1610368366004612e8f565b610d85565b61038061037b366004612e77565b61103d565b604051610253919061314e565b6102bb61114b565b6103a86103a3366004612e77565b61115d565b60405161025396959493929190613374565b6102466103c8366004612e8f565b6112c9565b6103e06103db366004612e77565b6112f4565b6040516102539594939291906130a2565b6102b16103ff366004612e77565b6113d1565b6102bb6114b6565b6102b161041a366004612f93565b6114bb565b6102b161042d366004612e77565b6116f6565b6102b1610440366004612ffd565b6117e1565b6102b1610453366004612dd3565b611953565b6102b1610466366004612e77565b611ae8565b6102bb611bba565b6102b1610481366004612f58565b611bcc565b6102b1610494366004612dfc565b611db4565b6102b16104a7366004612e8f565b6120c5565b6104bf6104ba366004612e77565b6120f0565b6040516102539190613101565b6104d4612305565b60405161025391906131ae565b6102bb61242f565b6102b16104f7366004612e77565b612441565b6105046126d7565b6040516102539190613277565b6102bb612891565b60007bffffffffffffffffffffffffffffffffffffffffffffffffffffffff1982167f7965db0b00000000000000000000000000000000000000000000000000000000148061056c575061056c826128b5565b90505b919050565b606061058e600080516020613b94833981519152336112c9565b6105b65760405160e560020a62461bcd0281526004016105ad90613894565b60405180910390fd5b60606000805b6000858152600260205260409020548110156106e157600085815260026020526040902080543391600791849081106106085760e060020a634e487b7102600052603260045260246000fd5b9060005260206000200154815481106106345760e060020a634e487b7102600052603260045260246000fd5b6000918252602090912060016006909202010154600160a060020a031614156106cf5760008581526002602052604090208054829081106106885760e060020a634e487b7102600052603260045260246000fd5b90600052602060002001548383815181106106b65760e060020a634e487b7102600052603260045260246000fd5b6020908102919091010152816106cb81613b06565b9250505b806106d981613b06565b9150506105bc565b50909392505050565b600681815481106106fa57600080fd5b6000918252602090912060049091020180546001820154600390920154909250600160a060020a039091169060ff1683565b33600160a060020a03166007828154811061075a5760e060020a634e487b7102600052603260045260246000fd5b6000918252602090912060069091020154600160a060020a0316146107945760405160e560020a62461bcd0281526004016105ad906139a7565b6000600782815481106107ba5760e060020a634e487b7102600052603260045260246000fd5b906000526020600020906006020160050160006101000a81548160ff0219169083151502179055507f1c29a840094776505fecc7edcc6b1f50f3850403558ec39c9fb0f1d3179c60938160405161081191906133cb565b60405180910390a150565b7f3e206be88d1de4207c0189003e17add3718b1a1bf78910a785940577239bbdae81565b60009081526020819052604090206001015490565b61087f7f3e206be88d1de4207c0189003e17add3718b1a1bf78910a785940577239bbdae336112c9565b61089e5760405160e560020a62461bcd0281526004016105ad90613902565b6108b6600080516020613b74833981519152826112c9565b156108d65760405160e560020a62461bcd0281526004016105ad9061341e565b6108ee600080516020613b748339815191528261091d565b7f3c0aee07d693a6f94b1a6aca6097bdde55429f0834eb9c27e3c31a03081f09b481604051610811919061308e565b61093161092983610840565b6103c86128fc565b6109505760405160e560020a62461bcd0281526004016105ad9061348c565b61095a8282612900565b5050565b6109666128fc565b600160a060020a031681600160a060020a0316146109995760405160e560020a62461bcd0281526004016105ad90613a04565b61095a8282612985565b60606109bd600080516020613b54833981519152836112c9565b156109fc575060408051808201909152600881527f50524f4d4f544552000000000000000000000000000000000000000000000000602082015261056f565b610a14600080516020613b74833981519152836112c9565b15610a53575060408051808201909152600981527f415554484f524954590000000000000000000000000000000000000000000000602082015261056f565b610a6b600080516020613b94833981519152836112c9565b15610aaa575060408051808201909152600c81527f494e56455354494741544f520000000000000000000000000000000000000000602082015261056f565b5060408051808201909152600681527f4e4f524f4c450000000000000000000000000000000000000000000000000000602082015261056f565b610afc600080516020613b54833981519152336112c9565b610b1b5760405160e560020a62461bcd0281526004016105ad90613800565b6040805160c081018252600080825260208083018281524294840194855233606085019081526080850188815260a086018890526005805460018101825595819052865195027f036b6384b5eca791c62761152d0c79bb0604c104a5fb6f4eb0703f3154bb3db081018054945115156101000261ff001997151560ff19909616959095179690961693909317855595517f036b6384b5eca791c62761152d0c79bb0604c104a5fb6f4eb0703f3154bb3db1830155517f036b6384b5eca791c62761152d0c79bb0604c104a5fb6f4eb0703f3154bb3db282018054600160a060020a0392909216600160a060020a03199092169190911790559351805193949293610c4c937f036b6384b5eca791c62761152d0c79bb0604c104a5fb6f4eb0703f3154bb3db301929190910190612aca565b5060a08201518051610c68916004840191602090910190612aca565b505060055460009150610c7d90600190613ab1565b90507f393b49683a69d6c07468cd1452cf131050663f22ba18f2b6c635460c15a272e53382604051610cb09291906130e8565b60405180910390a1505050565b610ce77f47a6ab365f603cf120cb936195de17fd0bac3880ff606e7a0edb5e8e6580b1ae336112c9565b610d065760405160e560020a62461bcd0281526004016105ad906136cb565b610d1e600080516020613b54833981519152826112c9565b15610d3e5760405160e560020a62461bcd0281526004016105ad9061357d565b610d56600080516020613b548339815191528261091d565b7f786ebfd921e487d94a7dbf555edf33e5f264f7b59acdcdfe139c08f48f07555981604051610811919061308e565b610d9d600080516020613b54833981519152336112c9565b610dbc5760405160e560020a62461bcd0281526004016105ad90613800565b600160058381548110610de25760e060020a634e487b7102600052603260045260246000fd5b60009182526020909120600590910201805460ff1916821515179055610e1d5760405160e560020a62461bcd0281526004016105ad906135b4565b610e35600080516020613b948339815191528261091d565b7fe8418412d360af43b959e2ca49b9ad98feb77e7b5597963ca346077db47d69ba81604051610e64919061308e565b60405180910390a1610e74612b4e565b33602082810191825284835260006060840181905260068054600181018255915283517ff652222313e28459528d920b65115c16c04f3efc82aaedc97be59f3f377c0d3f600490920291820190815592517ff652222313e28459528d920b65115c16c04f3efc82aaedc97be59f3f377c0d4082018054600160a060020a031916600160a060020a0390921691909117905560408401518051859493610f3d937ff652222313e28459528d920b65115c16c04f3efc82aaedc97be59f3f377c0d4101920190612ba0565b50606082015160038201805460ff19166001836002811115610f725760e060020a634e487b7102600052602160045260246000fd5b02179055505060065460009150610f8b90600190613ab1565b905060068181548110610fb15760e060020a634e487b7102600052603260045260246000fd5b600091825260208083206004929092029091016002018054600181018255908352818320018054600160a060020a031916600160a060020a03871617905585825260039052604090819020829055517fd0e085d27af7c005fe41734021fe6dbb0355363136765b640fb6f1ccc994aff19061102f9083908790613aa3565b60405180910390a150505050565b6060600782815481106110635760e060020a634e487b7102600052603260045260246000fd5b9060005260206000209060060201600301805480602002602001604051908101604052809291908181526020016000905b828210156111405783829060005260206000200180546110b390613ac8565b80601f01602080910402602001604051908101604052809291908181526020018280546110df90613ac8565b801561112c5780601f106111015761010080835404028352916020019161112c565b820191906000526020600020905b81548152906001019060200180831161110f57829003601f168201915b505050505081526020019060010190611094565b505050509050919050565b600080516020613b7483398151915281565b6005818154811061116d57600080fd5b6000918252602090912060059091020180546001820154600283015460038401805460ff8086169750610100909504909416949293600160a060020a0390921692916111b890613ac8565b80601f01602080910402602001604051908101604052809291908181526020018280546111e490613ac8565b80156112315780601f1061120657610100808354040283529160200191611231565b820191906000526020600020905b81548152906001019060200180831161121457829003601f168201915b50505050509080600401805461124690613ac8565b80601f016020809104026020016040519081016040528092919081815260200182805461127290613ac8565b80156112bf5780601f10611294576101008083540402835291602001916112bf565b820191906000526020600020905b8154815290600101906020018083116112a257829003601f168201915b5050505050905086565b600082815260208181526040808320600160a060020a038516845290915290205460ff165b92915050565b6007818154811061130457600080fd5b60009182526020909120600690910201805460018201546002830154600484018054600160a060020a03948516965092909316939092909161134590613ac8565b80601f016020809104026020016040519081016040528092919081815260200182805461137190613ac8565b80156113be5780601f10611393576101008083540402835291602001916113be565b820191906000526020600020905b8154815290600101906020018083116113a157829003601f168201915b5050506005909301549192505060ff1685565b33600160a060020a0316600782815481106113ff5760e060020a634e487b7102600052603260045260246000fd5b6000918252602090912060069091020154600160a060020a0316146114395760405160e560020a62461bcd0281526004016105ad906139a7565b60016007828154811061145f5760e060020a634e487b7102600052603260045260246000fd5b906000526020600020906006020160050160006101000a81548160ff0219169083151502179055507f36a15d0075dbb1137eac54b51ea4560dfa0506f3f119e1b956c668c902364f978160405161081191906133cb565b600081565b33600160a060020a0316600584815481106114e95760e060020a634e487b7102600052603260045260246000fd5b6000918252602090912060026005909202010154600160a060020a0316146115265760405160e560020a62461bcd0281526004016105ad90613837565b816005848154811061154b5760e060020a634e487b7102600052603260045260246000fd5b9060005260206000209060050201600301908051906020019061156f929190612aca565b5080600584815481106115955760e060020a634e487b7102600052603260045260246000fd5b906000526020600020906005020160040190805190602001906115b9929190612aca565b506000600584815481106115e05760e060020a634e487b7102600052603260045260246000fd5b60009182526020822060059190910201805460ff1916921515929092179091555b600084815260036020908152604080832054835260029091529020548110156116c657600084815260036020908152604080832054835260029091528120805460079190849081106116665760e060020a634e487b7102600052603260045260246000fd5b9060005260206000200154815481106116925760e060020a634e487b7102600052603260045260246000fd5b60009182526020909120600690910201600501805460ff1916911515919091179055806116be81613b06565b915050611601565b507fdb8c14f75806d11fd36bc4b0f76866ec32b944124f92606d265318896db915c383604051610cb091906133cb565b6005818154811061171a5760e060020a634e487b7102600052603260045260246000fd5b6000918252602090912060059091020160020154600160a060020a031633148061175a5750600081815260016020526040902054600160a060020a031633145b6117795760405160e560020a62461bcd0281526004016105ad90613455565b3360009081526004602052604090205460ff161561179657600080fd5b3360008181526004602052604090819020805460ff19166001179055517fdc4b856117882b87e1f3f241b2b78a6716d2b8ca12a038dcaabbb96339c436c39161081191849190613a61565b33600160a060020a03166007838154811061180f5760e060020a634e487b7102600052603260045260246000fd5b6000918252602090912060016006909202010154600160a060020a03161461184c5760405160e560020a62461bcd0281526004016105ad90613611565b6001600582815481106118725760e060020a634e487b7102600052603260045260246000fd5b906000526020600020906005020160000160016101000a81548160ff021916908315150217905550600160066003600084815260200190815260200160002054815481106118d35760e060020a634e487b7102600052603260045260246000fd5b60009182526020909120600360049092020101805460ff191660018360028111156119115760e060020a634e487b7102600052602160045260246000fd5b02179055507fe3213fd01fd10717035f9e59ad43129a8828ce3f408f79ec999dc8e3457bc3a28282604051611947929190613aa3565b60405180910390a15050565b6000600160a060020a0316600682815481106119825760e060020a634e487b7102600052603260045260246000fd5b6000918252602090912060016004909202010154600160a060020a031614156119c05760405160e560020a62461bcd0281526004016105ad90613702565b6119d8600080516020613b54833981519152336112c9565b6119f75760405160e560020a62461bcd0281526004016105ad90613800565b611a0f600080516020613b94833981519152836112c9565b15611a2f5760405160e560020a62461bcd0281526004016105ad90613737565b611a47600080516020613b948339815191528361091d565b7fe8418412d360af43b959e2ca49b9ad98feb77e7b5597963ca346077db47d69ba82604051611a76919061308e565b60405180910390a160068181548110611aa25760e060020a634e487b7102600052603260045260246000fd5b6000918252602080832060049290920290910160020180546001810182559083529120018054600160a060020a031916600160a060020a03939093169290921790915550565b611b00600080516020613b74833981519152336112c9565b611b1f5760405160e560020a62461bcd0281526004016105ad906134e9565b600160058281548110611b455760e060020a634e487b7102600052603260045260246000fd5b600091825260208083206005909202909101805493151560ff199094169390931790925582815260019091526040908190208054600160a060020a0319163390811790915590517fd65df88a0588557d07f6211709908fee34507d4997824fe59d19e820a4c0723b9161081191849190613a61565b600080516020613b9483398151915281565b33600160a060020a031660078381548110611bfa5760e060020a634e487b7102600052603260045260246000fd5b6000918252602090912060016006909202010154600160a060020a031614611c375760405160e560020a62461bcd0281526004016105ad90613611565b60078281548110611c5b5760e060020a634e487b7102600052603260045260246000fd5b600091825260209091206005600690920201015460ff161515600114611c965760405160e560020a62461bcd0281526004016105ad90613970565b600560078381548110611cbc5760e060020a634e487b7102600052603260045260246000fd5b90600052602060002090600602016002015481548110611cef5760e060020a634e487b7102600052603260045260246000fd5b6000918252602090912060059091020154610100900460ff1615611d285760405160e560020a62461bcd0281526004016105ad906138cb565b60078281548110611d4c5760e060020a634e487b7102600052603260045260246000fd5b600091825260208083206003600690930201919091018054600181018255908352918190208351611d84939190910191840190612aca565b507f96eee3ca8183a57f6338a6136e1a5ea2d021e6a6a85a4d54427ff30604d555338260405161194791906133cb565b611dbe8385612a08565b15611dde5760405160e560020a62461bcd0281526004016105ad90613939565b611df6600080516020613b94833981519152336112c9565b611e155760405160e560020a62461bcd0281526004016105ad90613894565b600560068481548110611e3b5760e060020a634e487b7102600052603260045260246000fd5b90600052602060002090600402016000015481548110611e6e5760e060020a634e487b7102600052603260045260246000fd5b6000918252602090912060059091020154610100900460ff1615611ea75760405160e560020a62461bcd0281526004016105ad906133e7565b611eaf612bf5565b600160a060020a0380861682523360208084019182526040840187815260808501869052600160a08601819052600780549182018155600052855160069091027fa66cc928b5edb82af9bd49922954155ab7b0942694bea4ce44661d9a8736c68881018054928716600160a060020a031993841617815594517fa66cc928b5edb82af9bd49922954155ab7b0942694bea4ce44661d9a8736c6898201805491909716921691909117909455517fa66cc928b5edb82af9bd49922954155ab7b0942694bea4ce44661d9a8736c68a840155606084015180518594611fb8937fa66cc928b5edb82af9bd49922954155ab7b0942694bea4ce44661d9a8736c68b909101920190612c29565b5060808201518051611fd4916004840191602090910190612aca565b5060a091909101516005909101805460ff191691151591909117905560075460009061200290600190613ab1565b9050600781815481106120285760e060020a634e487b7102600052603260045260246000fd5b600091825260208083206003600690930201919091018054600181018255908352918190208651612060939190910191870190612aca565b50600085815260026020908152604080832080546001810182559084529190922001829055517f34c396fb26826913aa8548c785070af2f09b9dbcb4e7c95ae01119e7205a28a9906120b59083908890613aa3565b60405180910390a1505050505050565b6120d161092983610840565b6109995760405160e560020a62461bcd0281526004016105ad9061366e565b6120f8612c82565b612110600080516020613b54833981519152336112c9565b8061212e575061212e600080516020613b74833981519152336112c9565b8061214c575061214c600080516020613b94833981519152336112c9565b61216b5760405160e560020a62461bcd0281526004016105ad906137c9565b600060405180604001604052806005858154811061219c5760e060020a634e487b7102600052603260045260246000fd5b906000526020600020906005020160030180546121b890613ac8565b80601f01602080910402602001604051908101604052809291908181526020018280546121e490613ac8565b80156122315780601f1061220657610100808354040283529160200191612231565b820191906000526020600020905b81548152906001019060200180831161221457829003601f168201915b505050505081526020016005858154811061225f5760e060020a634e487b7102600052603260045260246000fd5b9060005260206000209060050201600401805461227b90613ac8565b80601f01602080910402602001604051908101604052809291908181526020018280546122a790613ac8565b80156122f45780601f106122c9576101008083540402835291602001916122f4565b820191906000526020600020905b8154815290600101906020018083116122d757829003601f168201915b505050919092525090949350505050565b60606006805480602002602001604051908101604052809291908181526020016000905b828210156124265760008481526020908190206040805160808101825260048602909201805483526001810154600160a060020a03168385015260028101805483518187028101870185528181529495929493860193928301828280156123b957602002820191906000526020600020905b8154600160a060020a0316815260019091019060200180831161239b575b5050509183525050600382015460209091019060ff1660028111156123f15760e060020a634e487b7102600052602160045260246000fd5b60028111156124135760e060020a634e487b7102600052602160045260246000fd5b8152505081526020019060010190612329565b50505050905090565b600080516020613b5483398151915281565b60046000600583815481106124695760e060020a634e487b7102600052603260045260246000fd5b6000918252602080832060026005909302019190910154600160a060020a0316835282019290925260400190205460ff16151560011480156124d35750600081815260016020818152604080842054600160a060020a0316845260049091529091205460ff161515145b6124f25760405160e560020a62461bcd0281526004016105ad9061376c565b600581815481106125165760e060020a634e487b7102600052603260045260246000fd5b6000918252602090912060059091020160020154600160a060020a031633146125545760405160e560020a62461bcd0281526004016105ad90613520565b60006005828154811061257a5760e060020a634e487b7102600052603260045260246000fd5b906000526020600020906005020160000160016101000a81548160ff021916908315150217905550600060066003600084815260200190815260200160002054815481106125db5760e060020a634e487b7102600052603260045260246000fd5b60009182526020909120600360049092020101805460ff191660018360028111156126195760e060020a634e487b7102600052602160045260246000fd5b0217905550600060046000600584815481106126485760e060020a634e487b7102600052603260045260246000fd5b6000918252602080832060026005909302019190910154600160a060020a0390811684528382019490945260409283018220805495151560ff19968716179055858252600181528282205490931681526004909252908190208054909216909155517fba401e9d0da3456bc1ee7c3c23186d5f75b931b2976d96257878e87ec4886bbc906108119083906133cb565b60606005805480602002602001604051908101604052809291908181526020016000905b828210156124265760008481526020908190206040805160c08101825260058602909201805460ff80821615158552610100909104161515938301939093526001830154908201526002820154600160a060020a0316606082015260038201805491929160808401919061276e90613ac8565b80601f016020809104026020016040519081016040528092919081815260200182805461279a90613ac8565b80156127e75780601f106127bc576101008083540402835291602001916127e7565b820191906000526020600020905b8154815290600101906020018083116127ca57829003601f168201915b5050505050815260200160048201805461280090613ac8565b80601f016020809104026020016040519081016040528092919081815260200182805461282c90613ac8565b80156128795780601f1061284e57610100808354040283529160200191612879565b820191906000526020600020905b81548152906001019060200180831161285c57829003601f168201915b505050505081525050815260200190600101906126fb565b7f47a6ab365f603cf120cb936195de17fd0bac3880ff606e7a0edb5e8e6580b1ae81565b7bffffffffffffffffffffffffffffffffffffffffffffffffffffffff1981167f01ffc9a70000000000000000000000000000000000000000000000000000000014919050565b3390565b61290a82826112c9565b61095a57600082815260208181526040808320600160a060020a03851684529091529020805460ff191660011790556129416128fc565b600160a060020a031681600160a060020a0316837f2f8788117e7eff1d82e926ec794901d17c78024a50270940304540a733656f0d60405160405180910390a45050565b61298f82826112c9565b1561095a57600082815260208181526040808320600160a060020a03851684529091529020805460ff191690556129c46128fc565b600160a060020a031681600160a060020a0316837ff6391f5c32d9c69d2a47ea670b442974b53935d1edc7fd64eb21e047a839171b60405160405180910390a45050565b6000805b600754811015612ac05782600160a060020a031660078281548110612a445760e060020a634e487b7102600052603260045260246000fd5b6000918252602090912060069091020154600160a060020a0316148015612a9f57508360078281548110612a8b5760e060020a634e487b7102600052603260045260246000fd5b906000526020600020906006020160020154145b15612aae5760019150506112ee565b80612ab881613b06565b915050612a0c565b5060009392505050565b828054612ad690613ac8565b90600052602060002090601f016020900481019282612af85760008555612b3e565b82601f10612b1157805160ff1916838001178555612b3e565b82800160010185558215612b3e579182015b82811115612b3e578251825591602001919060010190612b23565b50612b4a929150612ca9565b5090565b6040518060800160405280600081526020016000600160a060020a031681526020016060815260200160006002811115612b9b5760e060020a634e487b7102600052602160045260246000fd5b905290565b828054828255906000526020600020908101928215612b3e579160200282015b82811115612b3e5782518254600160a060020a031916600160a060020a03909116178255602090920191600190910190612bc0565b6040805160c0810182526000808252602082018190529181018290526060808201819052608082015260a081019190915290565b828054828255906000526020600020908101928215612c76579160200282015b82811115612c765782518051612c66918491602090910190612aca565b5091602001919060010190612c49565b50612b4a929150612cbe565b60405180604001604052806002905b6060815260200190600190039081612c915790505090565b5b80821115612b4a5760008155600101612caa565b80821115612b4a576000612cd28282612cdb565b50600101612cbe565b508054612ce790613ac8565b6000825580601f10612cf95750612d17565b601f016020900490600052602060002090810190612d179190612ca9565b50565b8035600160a060020a038116811461056f57600080fd5b600082601f830112612d41578081fd5b813567ffffffffffffffff80821115612d5c57612d5c613b3a565b604051601f8301601f191681016020018281118282101715612d8057612d80613b3a565b604052828152848301602001861015612d97578384fd5b82602086016020830137918201602001929092529392505050565b600060208284031215612dc3578081fd5b612dcc82612d1a565b9392505050565b60008060408385031215612de5578081fd5b612dee83612d1a565b946020939093013593505050565b60008060008060808587031215612e11578182fd5b612e1a85612d1a565b935060208501359250604085013567ffffffffffffffff80821115612e3d578384fd5b612e4988838901612d31565b93506060870135915080821115612e5e578283fd5b50612e6b87828801612d31565b91505092959194509250565b600060208284031215612e88578081fd5b5035919050565b60008060408385031215612ea1578182fd5b82359150612eb160208401612d1a565b90509250929050565b600060208284031215612ecb578081fd5b81357bffffffffffffffffffffffffffffffffffffffffffffffffffffffff1981168114612dcc578182fd5b60008060408385031215612f09578182fd5b823567ffffffffffffffff80821115612f20578384fd5b612f2c86838701612d31565b93506020850135915080821115612f41578283fd5b50612f4e85828601612d31565b9150509250929050565b60008060408385031215612f6a578182fd5b82359150602083013567ffffffffffffffff811115612f87578182fd5b612f4e85828601612d31565b600080600060608486031215612fa7578283fd5b83359250602084013567ffffffffffffffff80821115612fc5578384fd5b612fd187838801612d31565b93506040860135915080821115612fe6578283fd5b50612ff386828701612d31565b9150509250925092565b6000806040838503121561300f578182fd5b50508035926020909101359150565b6003811061303f5760e060020a634e487b7102600052602160045260246000fd5b9052565b60008151808452815b818110156130685760208185018101518683018201520161304c565b818111156130795782602083870101525b50601f01601f19169290920160200192915050565b600160a060020a0391909116815260200190565b6000600160a060020a03808816835280871660208401525084604083015260a060608301526130d460a0830185613043565b905082151560808301529695505050505050565b600160a060020a03929092168252602082015260400190565b60208082526000906060830183820185845b600281101561314257601f19878503018352613130848351613043565b93509184019190840190600101613113565b50919695505050505050565b6000602080830181845280855180835260408601915060408482028701019250838701855b828110156131a157603f1988860301845261318f858351613043565b94509285019290850190600101613173565b5092979650505050505050565b60208082528251828201819052600091906040908185019080840286018301878501865b8381101561326957888303603f1901855281518051845287810151600160a060020a0390811689860152878201516080898701819052815190870181905260a0870192918b01918c915b8083101561323e57835182168552938c0193928c01926001929092019161321c565b50505050606091820151916132558682018461301e565b5095880195935050908601906001016131d2565b509098975050505050505050565b60208082528251828201819052600091906040908185019080840286018301878501865b8381101561326957603f19898403018552815160c08151151585528882015115158986015287820151888601526060600160a060020a038184015116818701525060808083015182828801526132f383880182613043565b9250505060a080830151925085820381870152506133118183613043565b96890196945050509086019060010161329b565b6020808252825182820181905260009190848201906040850190845b8181101561335d57835183529284019291840191600101613341565b50909695505050505050565b901515815260200190565b600087151582528615156020830152856040830152600160a060020a038516606083015260c060808301526133ac60c0830185613043565b82810360a08401526133be8185613043565b9998505050505050505050565b90815260200190565b600060208252612dcc6020830184613043565b6020808252601b908201527f546869732070726f746f636f6c2068617320616e20616c657274210000000000604082015260600190565b6020808252601d908201527f4164647265737320697320616c726561647920417574686f7269747921000000604082015260600190565b6020808252601f908201527f6e6f7420656c696769626c6520746f20676976652061677265656d656e742100604082015260600190565b6020808252602f908201527f416363657373436f6e74726f6c3a2073656e646572206d75737420626520616e60408201527f2061646d696e20746f206772616e740000000000000000000000000000000000606082015260800190565b60208082526016908201527f596f7520617265206e6f7420417574686f726974792100000000000000000000604082015260600190565b60208082526028908201527f4e6f7420656e7469746c656420746f207265737461727420636c696e6963616c60408201527f20747269616c7321000000000000000000000000000000000000000000000000606082015260800190565b6020808252601c908201527f4164647265737320697320616c72656164792050726f6d6f7465722100000000604082015260600190565b60208082526025908201527f546869732070726f746f636f6c20686173206e6f74206265656e2076616c696460408201527f6174656421000000000000000000000000000000000000000000000000000000606082015260800190565b60208082526035908201527f596f7520617265206e6f7420617574686f72697a656420746f2061636365737360408201527f20746869732070617469656e7427732064617461210000000000000000000000606082015260800190565b60208082526030908201527f416363657373436f6e74726f6c3a2073656e646572206d75737420626520616e60408201527f2061646d696e20746f207265766f6b6500000000000000000000000000000000606082015260800190565b6020808252601b908201527f596f7520617265206e6f742050726f6d6f7465722041646d696e210000000000604082015260600190565b6020808252818101527f746869732070726f6a65637420646f6573206e6f742065786973742079657421604082015260600190565b6020808252818101527f4164647265737320697320616c726561647920496e76657374696761746f7221604082015260600190565b60208082526026908201527f70726f6d6f74657220616e6420617574686f72697479206e6f7420616772656560408201527f6420796574210000000000000000000000000000000000000000000000000000606082015260800190565b6020808252601d908201527f6e6f7420616c6c6f77656420746f20726561642070726f746f636f6c21000000604082015260600190565b60208082526015908201527f596f7520617265206e6f742050726f6d6f746572210000000000000000000000604082015260600190565b6020808252602b908201527f596f7520617265206e6f7420616c6c6f77656420746f2075706461746520746860408201527f652070726f746f636f6c21000000000000000000000000000000000000000000606082015260800190565b60208082526019908201527f596f7520617265206e6f7420496e76657374696761746f722100000000000000604082015260600190565b60208082526017908201527f416c657274206f6e20746869732070726f746f636f6c21000000000000000000604082015260600190565b6020808252601c908201527f596f7520617265206e6f7420417574686f726974792041646d696e2100000000604082015260600190565b6020808252601c908201527f50617469656e747320616c726561647920726567697374657265642100000000604082015260600190565b60208082526015908201527f4e6f2070617469656e74277320636f6e73656e74210000000000000000000000604082015260600190565b60208082526022908201527f796f7520617265206e6f7420617574686f72697a656420746f20646f2074686160408201527f7421000000000000000000000000000000000000000000000000000000000000606082015260800190565b6020808252602f908201527f416363657373436f6e74726f6c3a2063616e206f6e6c792072656e6f756e636560408201527f20726f6c657320666f722073656c660000000000000000000000000000000000606082015260800190565b918252600160a060020a0316602082015260400190565b838152600160a060020a038316602082015260608101613a9b604083018461301e565b949350505050565b918252602082015260400190565b600082821015613ac357613ac3613b21565b500390565b600281046001821680613adc57607f821691505b60208210811415613b005760e060020a634e487b7102600052602260045260246000fd5b50919050565b6000600019821415613b1a57613b1a613b21565b5060010190565b60e060020a634e487b7102600052601160045260246000fd5b60e060020a634e487b7102600052604160045260246000fdfe0996d044c7309cb5a01d79c18ee9e4c86aca84367cbd5bfd5f5d0606acc99273843b48dccc6ff192f9330133622b0536f7b94feca0cf36e7e46fc50060b6f88297f21e7273917267af1fea4c3510695aa29abe57349ce57ceec11b3468831803a26469706673582212200ff2e3b21f6db1772b6fa9f766908840496e4ab2ea101a91f16d51ff0bc7fedb64736f6c634300080000330996d044c7309cb5a01d79c18ee9e4c86aca84367cbd5bfd5f5d0606acc99273843b48dccc6ff192f9330133622b0536f7b94feca0cf36e7e46fc50060b6f8823e206be88d1de4207c0189003e17add3718b1a1bf78910a785940577239bbdae47a6ab365f603cf120cb936195de17fd0bac3880ff606e7a0edb5e8e6580b1ae",
  "immutableReferences": {},
  "source": "// SPDX-License-Identifier: MIT\npragma solidity 0.8.0;\npragma abicoder v2;\n\nimport \"../client/node_modules/@openzeppelin/contracts/access/AccessControl.sol\";\n\n/**\n * @title Decentralized clinical trials follow up\n * @author Bruno Coupier, Samuel Edoumou, Gregory Bost\n */\ncontract SuiviMed is AccessControl {\n    /**\n     * @dev Defines the Roles of AccessControl.\n     */\n    bytes32 public constant AUTHORITY = keccak256(\"AUTHORITY\");\n    bytes32 public constant AUTHORITYADMIN = keccak256(\"AUTHORITYADMIN\");\n    bytes32 public constant PROMOTER = keccak256(\"PROMOTER\");\n    bytes32 public constant PROMOTERADMIN = keccak256(\"PROMOTERADMIN\");\n    bytes32 public constant INVESTIGATOR = keccak256(\"INVESTIGATOR\");\n\n    enum Status {ACTIVE, SUSPENDED, COMPLETED}\n\n    struct Patient {\n        address patientAddress;\n        address investigatorAddress;\n        uint256 projectID;\n        string[] dataCID;\n        string nameCID;\n        bool consent;\n    }\n\n    struct Protocol {\n        bool validated;\n        bool alertOn;\n        uint256 date;\n        address promoterAddress;\n        string descriptionCID;\n        string treatmentsListCID;\n    }\n\n    struct Project {\n        uint256 protocolID;\n        address promoterAddress;\n        address[] investigatorsAddresses;\n        Status status;\n    }\n\n    /**\n     * @dev To keep track which authority has validated protocols.\n     */\n    mapping(uint256 => address) protocolValidatedByAuthority;\n\n    /**\n     * @dev to keep track which patients were added to a project.\n     */\n    mapping(uint256 => uint256[]) projectIDToPatientsIDs;\n\n    /**\n     * @dev to keep track which project is associated with a protocol.\n     */\n    mapping(uint256 => uint256) protocolIDToProjectID;\n\n    /**\n     * @dev for multisig agreement on resuming clinical trials.\n     */\n    mapping(address => bool) agreedOnResume;   \n\n    /**\n     * @notice ces tableaux enregistrent les infos des projets ainsi que leurs participants sur la blockchain.\n     */\n    Protocol[] public protocols;\n    Project[] public projects;\n    Patient[] public patients;\n\n    /**\n     * @notice The events are broadcasting alerts and infos,\n     *  and allow tracking smart contract interactions.\n     */\n    event promoterAdded(address _addressPromoter);\n    event authorityAdded(address _addressAuthority);\n    event protocolCreation(address _promoterAddress, uint256 _protocolID);\n    event projectCreation(uint256 _projectID, uint256 _protocolID);\n    event investigatorAdded(address _investigatorAddress);\n    event protocolValidation(uint256 _protocolID, address _authorityAddress);\n    event patientAdded(uint256 _patientID, uint256 _projectID);\n    event consentRevoked(uint256 _patientID);\n    event newConsent(uint256 _patientID);\n    event dataCollected(uint256 _patientID);\n    event alert(uint256 _patientID, uint256 _projectID);\n    event agreedOnResumeEvent(uint256 _protocolID, address _personAgreeing);\n    event resumedAfterAlert(uint256 _protocolID);\n    event protocolUpdated(uint256 _protocolID);\n\n    /**\n     * @dev the constructor initializes the roles of promoters and authorities.\n     * @param _addressPromoter the address of the first promoter designated to be promoters and investigators Admin\n     * @param _addressAuthority the address of the first authority designated to be authorities Admin\n     */\n    constructor(\n        address _addressPromoter,\n        address _addressAuthority\n    ) {\n        /**\n         * @dev Set first address to be Promoter and admin of Promoters.\n         */\n        _setupRole(PROMOTER, _addressPromoter);\n        _setupRole(PROMOTERADMIN, _addressPromoter);\n        /**\n        * @dev Set PROMOTERADMIN as Admins of PROMOTER.\n        */\n        _setRoleAdmin(PROMOTER, PROMOTERADMIN);\n        /**\n         * @dev Set PROMOTER as Admins of INVESTIGATOR.\n         */\n        _setRoleAdmin(INVESTIGATOR, PROMOTER);\n        /**\n         * @dev Set second address to be Authority and admin of Authorities.\n         */\n        _setupRole(AUTHORITY, _addressAuthority);\n        _setupRole(AUTHORITYADMIN, _addressAuthority);\n        /**\n         * @dev Set AUTHORITYADMIN as Admins of AUTHORITY.\n         */\n        _setRoleAdmin(AUTHORITY, AUTHORITYADMIN);\n    }\n\n    /**\n     * @notice This function adds new promoters by promoter admins.\n     * @param _addressPromoter the address to be added to PROMOTER role.\n     */\n    function addPromoter(address _addressPromoter) public {\n        require(\n            hasRole(PROMOTERADMIN, msg.sender),\n            \"You are not Promoter Admin!\"\n        );\n        require(\n            !hasRole(PROMOTER, _addressPromoter),\n            \"Address is already Promoter!\"\n        );\n        grantRole(PROMOTER, _addressPromoter);\n        emit promoterAdded(_addressPromoter);\n    }\n\n    /**\n     * @notice This function adds new authorities by authority admins.\n     * @param _addressAuthority the address to be added to AUTHORITY role.\n     */\n    function addAuthority(address _addressAuthority) public {\n        require(\n            hasRole(AUTHORITYADMIN, msg.sender),\n            \"You are not Authority Admin!\"\n        );\n        require(\n            !hasRole(AUTHORITY, _addressAuthority),\n            \"Address is already Authority!\"\n        );\n        grantRole(AUTHORITY, _addressAuthority);\n        emit authorityAdded(_addressAuthority);\n    }\n\n    /**\n     * @notice This function adds new investigators on a project by a promoter\n     * @param _addressInvestigator the address to be added to INVESTIGATOR Roles.\n     * @param _projectID the ID of the project, the investigator is added onto.\n     */\n    function addInvestigator(address _addressInvestigator, uint256 _projectID)\n        public\n    {\n        require(\n            projects[_projectID].promoterAddress != address(0),\n            \"this project does not exist yet!\"\n        );\n        require(hasRole(PROMOTER, msg.sender), \"You are not Promoter!\");\n        require(\n            !hasRole(INVESTIGATOR, _addressInvestigator),\n            \"Address is already Investigator!\"\n        );\n        grantRole(INVESTIGATOR, _addressInvestigator);\n        emit investigatorAdded(_addressInvestigator);\n        projects[_projectID].investigatorsAddresses.push(_addressInvestigator);\n    }\n\n    /**\n     * @notice Promoters can create new protocols with this function\n     * @param _descriptionCID the Content Identifier (CID) of the protocol's description part on IPFS.\n     * @param _treatmentsListCID the Content Identifier (CID) of the protocol's treatments list part on IPFS.\n     */\n    function createProtocol(\n        string memory _descriptionCID,\n        string memory _treatmentsListCID\n    ) public {\n        require(hasRole(PROMOTER, msg.sender), \"You are not Promoter!\");\n        protocols.push(\n            Protocol(\n                false,\n                false,\n                block.timestamp,\n                msg.sender,\n                _descriptionCID,\n                _treatmentsListCID\n            )\n        );\n        uint256 _protocolID = protocols.length - 1;\n        emit protocolCreation(msg.sender, _protocolID);\n    }\n\n    /**\n     * @notice Promoters can create new projects with this function\n     * @param _protocolID ID of the protocol investigated in the project.\n     * @param _investigatorAddress Address of the first investigator added to the project.\n     */\n    function createProject(uint256 _protocolID, address _investigatorAddress)\n        public\n    {\n        require(hasRole(PROMOTER, msg.sender), \"You are not Promoter!\");\n        require(\n            protocols[_protocolID].validated = true,\n            \"This protocol has not been validated!\"\n        );\n        grantRole(INVESTIGATOR, _investigatorAddress);\n        emit investigatorAdded(_investigatorAddress);\n        Project memory project;\n        project.promoterAddress = msg.sender;\n        project.protocolID = _protocolID;\n        project.status = Status.ACTIVE;\n        projects.push(project);\n        uint256 _projectID = projects.length - 1;\n        projects[_projectID].investigatorsAddresses.push(_investigatorAddress);\n        protocolIDToProjectID[_protocolID] = _projectID;\n        emit projectCreation(_projectID, _protocolID);\n    }\n\n    /**\n     * @notice Authorities can validate protocols with this function\n     * @param _protocolID ID of the protocol to be validated\n     */\n    function validateProtocol(uint256 _protocolID) public {\n        require(hasRole(AUTHORITY, msg.sender), \"You are not Authority!\");\n        protocols[_protocolID].validated = true;\n        protocolValidatedByAuthority[_protocolID] = msg.sender;\n        emit protocolValidation(_protocolID, msg.sender);\n    }\n\n    /**\n     * @notice A protocol can be updated by its promoter owner with this function.\n     * This function forces patients to reconsider the protocol and renew their consent.\n     * @param _protocolID ID of the protocol to be updated.\n     * @param _newDescriptionCID Content Identifier of the description part of the updated protocol on IPFS\n     * @param _newTreatmentsListCID Content Identifier of the treatment list part of the updated protocol on IPFS\n     */\n    function updateProtocol(\n        uint256 _protocolID,\n        string memory _newDescriptionCID,\n        string memory _newTreatmentsListCID\n    ) public {\n        require(\n            protocols[_protocolID].promoterAddress == msg.sender,\n            \"You are not allowed to update the protocol!\"\n        );\n        protocols[_protocolID].descriptionCID = _newDescriptionCID;\n        protocols[_protocolID].treatmentsListCID = _newTreatmentsListCID;\n        protocols[_protocolID].validated = false;\n        for (\n            uint256 i = 0;\n            i <\n            projectIDToPatientsIDs[protocolIDToProjectID[_protocolID]].length;\n            i++\n        ) {\n            patients[\n                projectIDToPatientsIDs[protocolIDToProjectID[_protocolID]][i]\n            ]\n                .consent = false;\n        }\n        emit protocolUpdated(_protocolID);\n    }\n\n    /**\n     * @notice Investigators can recruit new patients with this function and initially register their consent\n     * @param _patientAddress Address of the patient to be recruited.\n     * @param _projectID ID of the trials project for which the patient is recruited.\n     * @param _dataCID Content Identifier on IPFS of first of initial medical records of the patient. \n     * @param _nameCID Content Identifier on IPFS of the patient's identity record.\n     */\n    function addPatient(\n        address _patientAddress,\n        uint256 _projectID,\n        string memory _dataCID,\n        string memory _nameCID\n    ) public {\n        require(\n            !isPatientAlreadyInProject(_projectID, _patientAddress),\n            \"Patients already registered!\"\n        );\n        require(hasRole(INVESTIGATOR, msg.sender), \"You are not Investigator!\");\n        require(\n            protocols[projects[_projectID].protocolID].alertOn == false,\n            \"This protocol has an alert!\"\n        );\n        Patient memory _patient;\n        _patient.patientAddress = _patientAddress;\n        _patient.investigatorAddress = msg.sender;\n        _patient.projectID = _projectID;\n        _patient.nameCID = _nameCID;\n        _patient.consent = true;\n        patients.push(_patient);\n        uint256 _patientID = patients.length - 1;\n        patients[_patientID].dataCID.push(_dataCID);\n        projectIDToPatientsIDs[_projectID].push(_patientID);\n        emit patientAdded(_patientID, _projectID);\n    }\n\n    /**\n     * @notice This function checks if a patient is already enrolled in a project\n     * @param _projectID ID of the project concerned by the verification.\n     * @param _patientAddress Address of patient whose participation in the project is to be verified.\n     */\n    function isPatientAlreadyInProject(\n        uint256 _projectID,\n        address _patientAddress\n    ) private view returns (bool) {\n        for (uint256 i = 0; i < patients.length; i++) {\n            if (\n                patients[i].patientAddress == _patientAddress &&\n                patients[i].projectID == _projectID\n            ) {\n                return true;\n            }\n        }\n        return false;\n    }\n\n    /**\n     * @notice Patients can renew their consent using this function\n     * @param _patientID ID of the patient renewing his/her consentement\n     */\n    function consent(uint256 _patientID) public {\n        require(\n            patients[_patientID].patientAddress == msg.sender,\n            \"you are not authorized to do that!\"\n        );\n        patients[_patientID].consent = true;\n        emit newConsent(_patientID);\n    }\n\n    /**\n     * @notice Patients  can revoke their consent using this function\n     * @param _patientID ID of the patient revoking his/her consentement\n     */\n    function revokeConsent(uint256 _patientID) public {\n        require(\n            patients[_patientID].patientAddress == msg.sender,\n            \"you are not authorized to do that!\"\n        );\n        patients[_patientID].consent = false;\n        emit consentRevoked(_patientID);\n    }\n\n    /**\n     * @notice Investigators collects medical data of their patients using this function\n     * @param _patientID ID of the patient whose medical data are collected\n     * @param _newDataCID New Patient's medical data Content Identifier on IPFS\n     */\n    function collectData(uint256 _patientID, string memory _newDataCID) public {\n        require(\n            patients[_patientID].investigatorAddress == msg.sender,\n            \"You are not authorized to access this patient's data!\"\n        );\n        require(patients[_patientID].consent == true, \"No patient's consent!\");\n        /**\n         * @notice stops collecting data on patients if protocol has an alert on\n         */\n        require(\n            protocols[patients[_patientID].projectID].alertOn == false,\n            \"Alert on this protocol!\"\n        );\n        /**\n         * @dev to keep historic of dataCID in the blockchain\n         */\n        patients[_patientID].dataCID.push(_newDataCID);\n        emit dataCollected(_patientID);\n    }\n\n    /**\n     * @notice Investigators trigger an alert for a protocol using this function\n     * @param _patientID ID of the patient whose medical data are alarming\n     * @param _protocolID ID of the protocol concerned by the alert\n     */\n    function setAlertOn(uint256 _patientID, uint256 _protocolID) public {\n        require(\n            patients[_patientID].investigatorAddress == msg.sender,\n            \"You are not authorized to access this patient's data!\"\n        );\n        protocols[_protocolID].alertOn = true;\n        projects[protocolIDToProjectID[_protocolID]].status = Status.SUSPENDED;\n        emit alert(_patientID, _protocolID);\n    }\n\n    /**\n     * @notice This function collects agreement of promoters and authorities to resume clinical trials\n     * @param _protocolID ID of the protocol with an alert concerned by agreement \n     */\n    function agreeOnResume(uint256 _protocolID) public {\n        require(\n            msg.sender == protocols[_protocolID].promoterAddress ||\n                msg.sender == protocolValidatedByAuthority[_protocolID],\n            \"not eligible to give agreement!\"\n        );\n        require(agreedOnResume[msg.sender] == false);\n        agreedOnResume[msg.sender] = true;\n        emit agreedOnResumeEvent(_protocolID, msg.sender);\n    }\n\n    /**\n     * @notice This function allows resuming clinical trials with agreement of promoters and authorities\n     * @param _protocolID ID of the protocol to resume activity after an alert\n     */\n    function resumeAfterAlert(uint256 _protocolID) public {\n        require(\n            agreedOnResume[protocols[_protocolID].promoterAddress] == true &&\n                agreedOnResume[protocolValidatedByAuthority[_protocolID]] ==\n                true,\n            \"promoter and authority not agreed yet!\"\n        );\n        require(\n            msg.sender == protocols[_protocolID].promoterAddress,\n            \"Not entitled to restart clinical trials!\"\n        );\n        protocols[_protocolID].alertOn = false;\n        projects[protocolIDToProjectID[_protocolID]].status = Status.ACTIVE;\n        agreedOnResume[protocols[_protocolID].promoterAddress] = false;\n        agreedOnResume[protocolValidatedByAuthority[_protocolID]] = false;\n        emit resumedAfterAlert(_protocolID);\n    }\n\n    /**\n     * @notice This function allows retrieving data CIDs of a patient\n     * @param _patientID ID of the patient whose data CIDs need to be retrieved\n     */\n    function getPatientDataCIDs(uint256 _patientID)\n        public\n        view\n        returns (string[] memory)\n    {\n        return patients[_patientID].dataCID;\n    }\n\n    /**\n     * @notice This function returns the role associated with the provided address\n     * @param _address Address of the person subject of the role inquiry\n     */\n    function getRole(address _address) public view returns (string memory) {\n        if (hasRole(PROMOTER, _address)) {\n            return \"PROMOTER\";\n        } else if (hasRole(AUTHORITY, _address)) {\n            return \"AUTHORITY\";\n        } else if (hasRole(INVESTIGATOR, _address)) {\n            return \"INVESTIGATOR\";\n        } else {\n        return \"NOROLE\";\n        }\n    }\n\n    /**\n     * @notice This function allows retrieving data CIDs of a protocol\n     * @param _protocolID ID of the protocol whose data CIDs need to be retrieved\n     */\n    function getProtocolCIDs(uint256 _protocolID)\n        public\n        view\n        returns (string[2] memory)\n    {\n        require(\n            hasRole(PROMOTER, msg.sender) ||\n                hasRole(AUTHORITY, msg.sender) ||\n                hasRole(INVESTIGATOR, msg.sender),\n            \"not allowed to read protocol!\"\n        );\n\n        string[2] memory cids =\n            [\n                protocols[_protocolID].descriptionCID,\n                protocols[_protocolID].treatmentsListCID\n            ];\n\n        return cids;\n    }\n\n    /**\n     * @notice This function returns the protocols array\n     */\n    function getProtocols() public view returns (Protocol[] memory) {\n        return protocols;\n    }\n\n    /**\n     * @notice This function returns the projects array\n     */\n    function getProjects() public view returns (Project[] memory) {\n        return projects;\n    }\n\n    /**\n     * @notice This function returns the patients array\n     * @param _projectID ID of the project whose caller's patients list is to be retrieved\n     */\n    function getPatientsInProject(uint _projectID) public view returns (uint[] memory) {\n         /**\n         * @dev Enough to verify the caller is investigator since he can only retrieve its own patients\n         */\n        require(hasRole(INVESTIGATOR, msg.sender), \"You are not Investigator!\");\n        /**\n         * @dev \"memory array pattern\": use counter cause push is not allowed for memory array\n         */\n        uint[] memory projectInvestigatorPatientsIDs;\n        uint counter = 0;\n        for (\n            uint256 i = 0;\n            i <\n            projectIDToPatientsIDs[_projectID].length;\n            i++\n        ) {\n            if(patients[projectIDToPatientsIDs[_projectID][i]]\n                .investigatorAddress == msg.sender){\n                    projectInvestigatorPatientsIDs[counter]=projectIDToPatientsIDs[_projectID][i];\n                    counter++;\n                }\n        }\n\n        return projectInvestigatorPatientsIDs;\n    }\n\n    // function getProjectsIDSByInvestigator(address _investigatorAddress) public view returns (uint[] memory) {\n    //     /**\n    //      * @dev Enough to verify the caller is investigator since he can only retrieve its own patients\n    //      */\n    //     require(hasRole(INVESTIGATOR, msg.sender), \"You are not Investigator!\");\n    \n    //     /**\n    //      * @dev \"memory array pattern\": use counter cause push is not allowed for memory array\n    //      */\n    //     uint[] memory projectsIDs;\n    //     uint counter = 0;\n\n\n    // }\n\n}\n",
  "sourcePath": "/Users/samuel/Pictures/Alyra/heroku-suivimed/contracts/SuiviMed.sol",
  "compiler": {
    "name": "solc",
    "version": "0.8.0+commit.c7dfd78e.Emscripten.clang"
  },
  "schemaVersion": "3.3.4",
  "updatedAt": "2021-04-22T17:57:40.039Z",
  "networkType": "ethereum",
  "devdoc": {
    "author": "Bruno Coupier, Samuel Edoumou, Gregory Bost",
    "kind": "dev",
    "methods": {
      "addAuthority(address)": {
        "params": {
          "_addressAuthority": "the address to be added to AUTHORITY role."
        }
      },
      "addInvestigator(address,uint256)": {
        "params": {
          "_addressInvestigator": "the address to be added to INVESTIGATOR Roles.",
          "_projectID": "the ID of the project, the investigator is added onto."
        }
      },
      "addPatient(address,uint256,string,string)": {
        "params": {
          "_dataCID": "Content Identifier on IPFS of first of initial medical records of the patient. ",
          "_nameCID": "Content Identifier on IPFS of the patient's identity record.",
          "_patientAddress": "Address of the patient to be recruited.",
          "_projectID": "ID of the trials project for which the patient is recruited."
        }
      },
      "addPromoter(address)": {
        "params": {
          "_addressPromoter": "the address to be added to PROMOTER role."
        }
      },
      "agreeOnResume(uint256)": {
        "params": {
          "_protocolID": "ID of the protocol with an alert concerned by agreement "
        }
      },
      "collectData(uint256,string)": {
        "params": {
          "_newDataCID": "New Patient's medical data Content Identifier on IPFS",
          "_patientID": "ID of the patient whose medical data are collected"
        }
      },
      "consent(uint256)": {
        "params": {
          "_patientID": "ID of the patient renewing his/her consentement"
        }
      },
      "constructor": {
        "details": "the constructor initializes the roles of promoters and authorities.",
        "params": {
          "_addressAuthority": "the address of the first authority designated to be authorities Admin",
          "_addressPromoter": "the address of the first promoter designated to be promoters and investigators Admin"
        }
      },
      "createProject(uint256,address)": {
        "params": {
          "_investigatorAddress": "Address of the first investigator added to the project.",
          "_protocolID": "ID of the protocol investigated in the project."
        }
      },
      "createProtocol(string,string)": {
        "params": {
          "_descriptionCID": "the Content Identifier (CID) of the protocol's description part on IPFS.",
          "_treatmentsListCID": "the Content Identifier (CID) of the protocol's treatments list part on IPFS."
        }
      },
      "getPatientDataCIDs(uint256)": {
        "params": {
          "_patientID": "ID of the patient whose data CIDs need to be retrieved"
        }
      },
      "getPatientsInProject(uint256)": {
        "params": {
          "_projectID": "ID of the project whose caller's patients list is to be retrieved"
        }
      },
      "getProtocolCIDs(uint256)": {
        "params": {
          "_protocolID": "ID of the protocol whose data CIDs need to be retrieved"
        }
      },
      "getRole(address)": {
        "params": {
          "_address": "Address of the person subject of the role inquiry"
        }
      },
      "getRoleAdmin(bytes32)": {
        "details": "Returns the admin role that controls `role`. See {grantRole} and {revokeRole}. To change a role's admin, use {_setRoleAdmin}."
      },
      "grantRole(bytes32,address)": {
        "details": "Grants `role` to `account`. If `account` had not been already granted `role`, emits a {RoleGranted} event. Requirements: - the caller must have ``role``'s admin role."
      },
      "hasRole(bytes32,address)": {
        "details": "Returns `true` if `account` has been granted `role`."
      },
      "renounceRole(bytes32,address)": {
        "details": "Revokes `role` from the calling account. Roles are often managed via {grantRole} and {revokeRole}: this function's purpose is to provide a mechanism for accounts to lose their privileges if they are compromised (such as when a trusted device is misplaced). If the calling account had been granted `role`, emits a {RoleRevoked} event. Requirements: - the caller must be `account`."
      },
      "resumeAfterAlert(uint256)": {
        "params": {
          "_protocolID": "ID of the protocol to resume activity after an alert"
        }
      },
      "revokeConsent(uint256)": {
        "params": {
          "_patientID": "ID of the patient revoking his/her consentement"
        }
      },
      "revokeRole(bytes32,address)": {
        "details": "Revokes `role` from `account`. If `account` had been granted `role`, emits a {RoleRevoked} event. Requirements: - the caller must have ``role``'s admin role."
      },
      "setAlertOn(uint256,uint256)": {
        "params": {
          "_patientID": "ID of the patient whose medical data are alarming",
          "_protocolID": "ID of the protocol concerned by the alert"
        }
      },
      "supportsInterface(bytes4)": {
        "details": "See {IERC165-supportsInterface}."
      },
      "updateProtocol(uint256,string,string)": {
        "params": {
          "_newDescriptionCID": "Content Identifier of the description part of the updated protocol on IPFS",
          "_newTreatmentsListCID": "Content Identifier of the treatment list part of the updated protocol on IPFS",
          "_protocolID": "ID of the protocol to be updated."
        }
      },
      "validateProtocol(uint256)": {
        "params": {
          "_protocolID": "ID of the protocol to be validated"
        }
      }
    },
    "stateVariables": {
      "AUTHORITY": {
        "details": "Defines the Roles of AccessControl."
      },
      "agreedOnResume": {
        "details": "for multisig agreement on resuming clinical trials."
      },
      "projectIDToPatientsIDs": {
        "details": "to keep track which patients were added to a project."
      },
      "protocolIDToProjectID": {
        "details": "to keep track which project is associated with a protocol."
      },
      "protocolValidatedByAuthority": {
        "details": "To keep track which authority has validated protocols."
      }
    },
    "title": "Decentralized clinical trials follow up",
    "version": 1
  },
  "userdoc": {
    "events": {
      "promoterAdded(address)": {
        "notice": "The events are broadcasting alerts and infos,  and allow tracking smart contract interactions."
      }
    },
    "kind": "user",
    "methods": {
      "addAuthority(address)": {
        "notice": "This function adds new authorities by authority admins."
      },
      "addInvestigator(address,uint256)": {
        "notice": "This function adds new investigators on a project by a promoter"
      },
      "addPatient(address,uint256,string,string)": {
        "notice": "Investigators can recruit new patients with this function and initially register their consent"
      },
      "addPromoter(address)": {
        "notice": "This function adds new promoters by promoter admins."
      },
      "agreeOnResume(uint256)": {
        "notice": "This function collects agreement of promoters and authorities to resume clinical trials"
      },
      "collectData(uint256,string)": {
        "notice": "Investigators collects medical data of their patients using this function"
      },
      "consent(uint256)": {
        "notice": "Patients can renew their consent using this function"
      },
      "createProject(uint256,address)": {
        "notice": "Promoters can create new projects with this function"
      },
      "createProtocol(string,string)": {
        "notice": "Promoters can create new protocols with this function"
      },
      "getPatientDataCIDs(uint256)": {
        "notice": "This function allows retrieving data CIDs of a patient"
      },
      "getPatientsInProject(uint256)": {
        "notice": "This function returns the patients array"
      },
      "getProjects()": {
        "notice": "This function returns the projects array"
      },
      "getProtocolCIDs(uint256)": {
        "notice": "This function allows retrieving data CIDs of a protocol"
      },
      "getProtocols()": {
        "notice": "This function returns the protocols array"
      },
      "getRole(address)": {
        "notice": "This function returns the role associated with the provided address"
      },
      "protocols(uint256)": {
        "notice": "ces tableaux enregistrent les infos des projets ainsi que leurs participants sur la blockchain."
      },
      "resumeAfterAlert(uint256)": {
        "notice": "This function allows resuming clinical trials with agreement of promoters and authorities"
      },
      "revokeConsent(uint256)": {
        "notice": "Patients  can revoke their consent using this function"
      },
      "setAlertOn(uint256,uint256)": {
        "notice": "Investigators trigger an alert for a protocol using this function"
      },
      "updateProtocol(uint256,string,string)": {
        "notice": "A protocol can be updated by its promoter owner with this function. This function forces patients to reconsider the protocol and renew their consent."
      },
      "validateProtocol(uint256)": {
        "notice": "Authorities can validate protocols with this function"
      }
    },
    "version": 1
  }
}